:1000000000800020BD0100005149000009490000A6
:100010000949000009490000094900000949000098
:100020000949000009490000094900005149000040
:10003000514900000949000051490000F9480000F9
:100040005149000051490000514900005149000048
:100050005149000051490000514900005149000038
:100060005149000051490000514900005149000028
:100070005149000051490000514900005149000018
:100080005149000051490000514900005149000008
:1000900051490000514900005149000051490000F8
:1000A000B5220000C1220000514900005149000062
:1000B00051490000514900005149000051490000D8
:1000C00051490000514900005149000051490000C8
:1000D00051490000514900005149000051490000B8
:1000E00051490000514900005149000051490000A8
:1000F00051490000D531000051490000ED47000092
:1001000051490000B92A000051490000514900003E
:100110005149000051490000514900005149000077
:100120005149000051490000514900005149000067
:100130005149000051490000514900005149000057
:100140005149000051490000514900005149000047
:100150005149000051490000514900005149000037
:10016000290F0000A9380000514900005149000042
:100170005149000051490000514900005149000017
:100180005149000051490000514900005149000007
:1001900051490000514900005149000051490000F7
:1001A00051490000514900005149000051490000E7
:1001B000514900005149000051490000564B4CF292
:1001C000205210B51A804DF628121A8000BF00BFC9
:1001D00004F0C2FB514B4FF010621A60504A9A6013
:1001E000504ADA60504A136813F4807304D14F49BF
:1001F0000B604FF4A85313604D4B1A78110703D5C9
:100200001A7842F008021A704A4B4B492A221A7097
:100210004A4A4B4B8B4204D252F8040F43F8040B6A
:10022000F8E7484B484900228B4202D243F8042B9E
:10023000FAE74649464A002352F8230041F82300D2
:1002400001336F2BF8D1434B434A802103F8011B44
:100250009342FBD1414B3D4A1A60414B8A221A70AE
:10026000A3F5805324225A70A0221A709A7992071B
:10027000FCD59A79D406FCD43A4A937903F00C035E
:10028000082B384BF9D103221A7140225A719A79FE
:100290009006FCD5334A9179324B4906FBD5324A58
:1002A000324911600221516020221A709A7902F0BD
:1002B0000C020C2AFAD12E4B2E4A1A602E4B2F4AD2
:1002C0001A6000225A60072243F8042C2C4AC3F813
:1002D0000C2D62B603F0C0F9144B1B68DA0705D584
:1002E000284803F01DF9284B284A1A60284B1B7830
:1002F0005B0609D5244C254B22689A4204D121483B
:1003000003F00EF90023236005F014FE04F02AFB2D
:1003100002F0CAF8FEE700BF0E200540308004401E
:10032000823F04000100002B10D0034014D0034092
:1003300002D0074000E00740B496FF1F147300008E
:100340002087FF1FB896FF1FF49AFF1F0082FF1F30
:100350000000000000E400E05FE400E008ED00E0E1
:100360000050064000400640448004400000030165
:1003700004800440C010050014E000E0FF76010096
:10038000000020208B2E0D591CE00340A5C3945A79
:1003900000F00740FFFFFFFFFFFFFFFFFFFFFFFF32
:1003A000FFFFFFFFFFFFFFFFFFFFFFFFFFFFFFFF5D
:1003B000FFFFFFFFFFFFFFFFFFFFFFFFFFFFFFFF4D
:1003C000FFFFFFFFFFFFFFFFFFFFFFFFFFFFFFFF3D
:1003D000FFFFFFFFFFFFFFFFFFFFFFFFFFFFFFFF2D
:1003E000FFFFFFFFFFFFFFFFFFFFFFFFFFFFFFFF1D
:1003F000FFFFFFFFFFFFFFFFFFFFFFFFFFFFFFFF0D
:10040000FFFFFFFFFFFFFFFFFFFFFFFFDEF9FFFF23
:1004100010B5054C237833B9044B13B10448AFF33E
:1004200000800123237010BDB896FF1F000000005C
:1004300018730000084B10B51BB108490848AFF30A
:1004400000800848036803B910BD074B002BFBD0A0
:10045000BDE81040184700BF00000000BC96FF1F19
:1004600018730000B496FF1F0000000070B5494EDD
:10047000494D3369D3F83801D3F83411002288424A
:100480002A606A6077D02C46184601F02FFC336949
:1004900044F8040BD3F83811D3F834219142F3D146
:1004A0002B683A2B22D8DFE803F065222C36404A2D
:1004B00021212121212121215421212121212121F9
:1004C000212121212121212121212121212121211C
:1004D000212121212121212121212121212121210C
:1004E000212121611E002D4B08221A6070BDAA68CF
:1004F0006B682B4843EA02220121BDE8704000F0FE
:1005000013BCAA686B68264843EA02220221BDE8B0
:10051000704000F009BCAA686B68214843EA0222D7
:100520000321BDE8704000F0FFBBAA686B681C485F
:1005300043EA02220421BDE8704000F0F5BBAA683E
:100540006B68174843EA02220521BDE8704000F0BD
:10055000EBBBAA686B6853EA022315D0012BC5D107
:1005600000211048BDE8704000F012BC0B4B072280
:100570001A6070BD6A68AB68094842EA032200212C
:10058000BDE8704000F0D0BB01210648BDE87040D6
:1005900000F0FEBBC497FF1FFC96FF1FE496FF1FF1
:1005A0003C97FF1FE896FF1FF0B5254E254B717B4A
:1005B0003069254F87B00124002503932246049417
:1005C000019402950095042300F056FF33691F4AF9
:1005D0001F4E517B1069C3F85C621E4AC3F860224B
:1005E00002262B462A46039701961B4F0494029439
:1005F000009500F041FF1948194E00F019FB3846EC
:1006000000F082FA3846174900F0E8F821463078C1
:1006100002F0ACFF2146307802F094FFC82002F0CF
:10062000CDFF2946307802F08DFFC82002F0C6FFCA
:100630003078214607B0BDE8F04002F083BF00BF2C
:10064000C497FF1FA0860100801A0600B097FF1F05
:100650006D040000450700001897FF1F3C97FF1F1F
:100660000088FF1F0040794410B51348134C00F078
:10067000C3F9114800F078F9114905F0F9FA04F0CE
:100680005BFF0B460F4902460F48C4E90023C1E94E
:10069000002300F07BFB38B10C4800F0F7FA0A4861
:1006A000BDE8104000F08CBB084800F019FB06487C
:1006B000BDE8104000F084BB1897FF1F0897FF1F8C
:1006C00048F951401097FF1FE896FF1F3C97FF1F06
:1006D000D0B5052184B0062202238DE80E00104813
:1006E000104C04230322072100F05CFA0E4A0F4B42
:1006F0000F48D2E900670121C3E9006700F03AFB27
:100700000C4800F065F820460B4901F0B5FE0B4A95
:100710000B49204604B0BDE8D04005F0F9BB00BF4E
:100720003C97FF1FD496FF1F0897FF1F1097FF1FCE
:10073000E896FF1F1897FF1FF46E0000FC87FF1F4D
:10074000F923000010B51D4B1B68072B82B019D090
:10075000082B01D002B010BD19491A4B0022D1E973
:10076000000104F03DFF05F04DF903B21C12022216
:1007700001A915488DF804308DF8054000F08EFC75
:1007800002B010BD114800F001FB60B100231C460F
:10079000022201A90C488DF804408DF8053000F0C4
:1007A0007DFC02B010BD094800F0F0FA00280BBF34
:1007B000002303230124E724EAE700BFE496FF1F98
:1007C0000897FF1F00408F40C497FF1FE896FF1F48
:1007D000014B0362704700BF00A080440162704774
:1007E000438941692DE9F04FC6884588A1EB032173
:1007F00086FB0167002E77F100034FF4004E4FEAAD
:10080000E17BC0F2A380320A0489868842EA07624B
:100810003B12E5FB0E2384FB0145002C4FEA1649F1
:100820004FEA064875F10006C0F28C80E60984891B
:1008300046EA456618EB06084FEAE51784FB0145D2
:1008400049EB0709002C75F1000676DBE40D44EA5C
:10085000452404F5FA66B6F5FA6F07692DDB04FB4B
:1008600004F42111002500244FF0000E121B63EB4D
:100870000503A2FB07AB07FB03BBBAF1000FCEEBEE
:1008800006067BF10003866150DB4FEA5A52B8EB53
:10089000010842EACB2269EBE1794FEA6B53B2EBF4
:1008A000080263EB0903002A73F1000132DB520BEB
:1008B00042EAC342C261BDE8F08F032481FB0445D4
:1008C00004FB0BFE01FB05EEA4FB01457544002C67
:1008D00075F100013EDBA6F5FA6404EB440104EB7C
:1008E000840E04FB01F116F5C86F04FB0EF44FEA09
:1008F00061014FEA650E4FEAE40409DC06F2DC55BB
:100900004FEA850C05FB0C44C5EBC50C05FB0C112F
:10091000E517ABE741F6FF7412194FF000056B4184
:10092000520B42EAC342C261BDE8F08F0C4A002379
:100930001AEB020A4BEB030BA7E70A4E0027A41998
:100940007D4183E77F3445F100056FE7FF3647F1CE
:10095000000758E714F1FF3445F10105BBE700BF7C
:10096000FFFF1F00FFFF7F0038B50446C06905F098
:100970002BF9094905F030FA084905F079F90849D9
:1009800005F06CF807490546206A05F071F9014643
:10099000284605F021FA38BD000020410000C84279
:1009A00000DAC5470AE81C410B880022C3F30B0399
:1009B000CA810B801046531012F0010F31F813302A
:1009C0001ABF03F47F63584080EA1320082310F411
:1009D000004F4FEA400018BF80F4405003F1FF334E
:1009E00018BF00B213F0FF0380B2F0D10132102A19
:1009F000E1D1000B704700BF2DE9F041414C82B0BE
:100A0000064676212046002500F08AFE20464A212F
:100A100000F02EFB627B216900950123204601F046
:100A200023F9142002F0CAFD2046762100F078FE5A
:100A30002946204600F01CFB4FF00108627B21692B
:100A400000952046012301F00FF903237622617BF4
:100A500001952069CDF8008001F02EF935612069FB
:100A600001F044F930610746206901F03FF940EA9E
:100A700007273761206901F039F940EA0720306122
:100A80007621204600F04CFE20465A2100F0F0FA74
:100A9000627B216900954346204601F0E5F8142069
:100AA00002F08CFD2046762100F03AFE29462046D1
:100AB00000F0DEFA627B216900954346204601F092
:100AC000D3F8617B0195032376222069CDF800805D
:100AD00001F0F2F87561206901F008F970610546CE
:100AE000206901F003F940EA05257561206901F0EC
:100AF000FDF840EA05207061304602B0BDE8F041E3
:100B0000FFF76EBEB097FF1F2DE9F043244C83B072
:100B100081467621204600F003FE1E21204600F08B
:100B2000A7FA0023627B216900932046012301F08C
:100B30009BF80A2002F042FD4F46A0254FF0010825
:100B40007621174800F0ECFD00262946144800F0F5
:100B50008FFA627B216900960123114801F084F825
:100B6000617B0196022376222069CDF8008001F096
:100B7000A3F8206901F0BAF80646206901F0B6F83A
:100B80000235EDB240EA0620B02D27F8020BD7D18E
:100B90004946484603B0BDE8F043FFF705BF00BF34
:100BA000B097FF1F2DE9F04F044683B000F1180AFB
:100BB00004F11E0950469B460092019104F124085D
:100BC00000F016F9484600F013F904F12A074046F0
:100BD00000F00EF904F13006384600F009F904F18E
:100BE0003605304600F004F9284600F001F904F11A
:100BF0003C0000F0FDF80199504600F07BF9009AA6
:100C00004846114600F076F95946404600F072F920
:100C10000C99384600F06EF90D99304600F06AF9EB
:100C20000E99284600F066F9204603B0BDE8F08F23
:100C3000002310B540F2DC5180F8423004461830F1
:100C400000F05EF904F11E0040F2DC5100F058F9AA
:100C500004F1240040F2DC5100F052F904F12A00C2
:100C600040F2DC5100F04CF904F1300040F2DC516C
:100C700000F046F904F1360040F2DC5100F040F992
:100C80004FF47A70BDE8104002F098BC10B540F205
:100C9000DC510446016041608160C16001614161D5
:100CA000183000F02DF9616804F11E0000F028F9F9
:100CB000A16804F1240000F023F9E16804F12A009E
:100CC00000F01EF9216904F1300000F019F96169A2
:100CD00004F1360000F014F9012384F8423010BD0D
:100CE00010B50446002350F8181B84F8423000F079
:100CF00007F9616804F11E0000F002F9A16804F12F
:100D0000240000F0FDF8E16804F12A0000F0F8F892
:100D1000216904F1300000F0F3F8616904F1360054
:100D2000BDE8104000F0ECB890F842303BB905291E
:100D300005D8DFE801F00507090B0D034261704794
:100D4000026070474260704782607047C2607047BF
:100D50000261704710B504460121007902F0F2FBF0
:100D6000207A012102F0EEFB207B0121BDE810403A
:100D700002F0E8BB10B504460160C8B2002102F0E1
:100D8000F5FB00236374204610BD00BF007C704754
:100D9000427C017482B181B910B504460121007909
:100DA00002F0D0FB207A012102F0CCFB207B012154
:100DB000BDE8104002F0C6BB7047FFF7CBBF00BFD5
:100DC00010B50446007802F0C3FB28B1012802D117
:100DD000637C207433B910BD01462046BDE8104045
:100DE000FFF7D6BF2046BDE81040FFF7B3BF00BFF6
:100DF00070B40F4E0023358803710C210122154277
:100E00004FEA42040AD00379013903F10103A2B287
:100E10000371F4D1FF23037170BC704705490B883F
:100E2000154323EA020235800A8070BC704700BF78
:100E30008897FF1F8497FF1FF8B506790B2E01D9FD
:100E40003046F8BD0746CEB2304601211C46154655
:100E500002F08CFB1C483A791C4B01889E540123FC
:100E600093400B431A4903800B681A4805EB45056C
:100E700004EB4404AD00A40044F2506613F4800374
:100E80003D807C8020F8126016D10A68124D13480C
:100E9000DFF85CE0124E134C42F480020A604FF619
:100EA000FF722A601049CEF8003042F6A275202267
:100EB00033600560016022700C4B4FF480721A6041
:100EC0003E793046F8BD00BF8497FF1FA497FF1FEF
:100ED0003C8004408C97FF1F046003400060034087
:100EE0000C60034048E400E0A22F010008E100E0AC
:100EF000086003404FF416634FF40872FFF79CBF7D
:100F000001EB410103888900994203DB43888B424E
:100F1000A8BF0B4602790B2A9CBF024921F8123068
:100F2000704700BF8C97FF1FF8B5314E314D96F9D1
:100F300000202B881341DC0752D42F4C94F9003049
:100F40000B2B0EDC298841FA03F2D00702D52DE0E5
:100F5000D2072AD401335BB20C2B41FA03F2F7D14A
:100F6000237026480268C2F56A3101F5C071B1F5F7
:100F7000966F17DB4EF660238B42A8BF0B461A44D0
:100F80001F4902600E681F4D1F4A1C4F334442F632
:100F9000A3760B602E600368934202D900233B6066
:100FA0002370F8BD4FF49663E9E72370174A0121D7
:100FB000D05C02F0C7FA94F90030104A1449104886
:100FC00031F81350116833702944116002680D49DB
:100FD0002A44013342F6A37502600D602370F8BD08
:100FE0000A4B0021985C02F0ADFA0C233370A4E7A1
:100FF0000488FF1F8497FF1F8697FF1F8097FF1F9E
:101000000C600340006003407FA90300A497FF1F0A
:101010008C97FF1F0369D3F83801D3F83431C01A15
:10102000704700BF0369D3F83411D3F838219142D7
:1010300008D2D3F83421511C1A44C3F8341192F861
:10104000300070474FF0FF30704700BF0369D3F89E
:101050003411D3F8382191423DBFD3F834219B1885
:1010600093F830004FF0FF30704700BF704700BF6B
:101070000369D3F84422B2F5817F03D901230371B8
:1010800000207047D3F8442210B49C180132C3F8F2
:10109000442284F83C11012010BC7047F0B405696B
:1010A000D5F84432B3F5817F20D8D5F84462D5F81D
:1010B0004442C6F581760136964205F59E7302D20A
:1010C0000127324607714AB1013C23448D1811F8BB
:1010D000014B03F8014FA942F9D10569D5F8443213
:1010E0001344C5F844321046F0BC70470123037125
:1010F000F0BC0020704700BF38B503690A4A02609F
:1011000093F84822022A044601D0204638BDD3F87D
:101110006452002DF9D0284601F060FA284601F00B
:10112000C1F9204638BD00BF006F00002DE9F0472F
:10113000002B40F2646740F2036640F203240BBFC9
:10114000B846B0464FF41979A1469DF8207071BB9E
:10115000012A31D80C46164605469A46AFB190F89A
:101160004B2290F84A32002A0CBF00270227032B9B
:101170000BD8DFE803F0473C310239461F2002F06C
:10118000F5F939461A2002F0F1F9C4B9002E44D01D
:10119000012E05D12B4A2C4BC2F80090C3F80090C9
:1011A00085F84A6285F84BA20120BDE8F087012945
:1011B00002D1941E012CCDD90020BDE8F087012C6E
:1011C000EED1022E36D0032EEAD1204A204BC2F8AF
:1011D0000080C3F80080E3E739461E2002F0C6F91C
:1011E00039461D2002F0C2F9002CE8D1CEE739467D
:1011F000122002F0BBF93946132002F0B7F9002C97
:10120000DDD1C3E73946112002F0B0F9394610208C
:1012100002F0ACF9002CD2D1B8E70E4A0E4BC2F85E
:1012200000900120C3F8009085F84A6285F84BA22F
:10123000BDE8F087094A0A4BC2F80090C3F8009055
:10124000AEE700BF0CA0044008A0044000D004405A
:1012500004D0044004A0044000A004402CB004408A
:1012600028B00440F8B5C3681B789B0610D4836887
:101270000D4680211970C3681221197090F8493207
:10128000012B044606D08AB980F848220120F8BD17
:101290000020F8BD1A4675B9454B4FF080711960B2
:1012A000022A0FD0012084F84802F8BD531E012BFA
:1012B000F1D90120F8BD012DF2D13D4B4FF0007165
:1012C0001960EDE7D4F86462002E65D03379102BF5
:1012D0002ED0002D39D132683649938B364F43F0EA
:1012E000080393833279531102F110009B0041F8F7
:1012F000207003F1604303F56143012102F01F02F6
:1013000001FA02F231681A608B8B43F002038B837F
:10131000337903F1804303F5043396221D701A706C
:101320000022022384F85A2284F848320120F8BDB2
:10133000304601F053F9304601F0B4F800230120A3
:10134000C4F8643284F84802F8BD012DE8D132684F
:101350001849938B194F43F0080393833279531143
:1013600002F110009B0041F8207003F1604303F587
:10137000614302F01F02954032681D60938B43F079
:1013800002039383337903F1804303F5043300218F
:10139000972219701A70C3E7082001F081F83146CE
:1013A00007463E4601F0B6F8C4F864728EE700BF07
:1013B00000E100E00082FF1FB5220000C122000012
:1013C000F0B5284EDFF8ACE0A6FB0143A6FB0242D5
:1013D0009E0937027546960914240023B7FBF6F6DA
:1013E00004E00133382B1BD055F8044F22029642FB
:1013F000F7DA83BB14241C4A4568B1FBF4F491422C
:101400002B70C0F84C4207D8184B8269A3FB0131FE
:10141000C1F307511170F0BD836904221A70F0BD49
:10142000002422464FF470274FF470654FF0370CBC
:10143000B21AF71B002A87EAE776A6EBE776B8BF71
:101440005242964202DD0A4AD35CD4E7084B2C464E
:1014500013F80C30CFE703F1FF3C5EF82C502F025D
:10146000E6E700BFD34D6210FF6BDC02819F5E1682
:1014700000700000206F0000F0B583B0044696466F
:101480009DF820009DF824209DF828709DF830607C
:101490000D4689BBDFF8DCC0DCF8001041F04001EC
:1014A000CCF80010002184F849E284F85112BEF112
:1014B000000F33D1636920211970236883F800E09D
:1014C000E36983F800E000213B460091204629466D
:1014D000FFF72CFE0B9A26492046FFF771FF324694
:1014E00029462046FFF7BEFE94F8493293B3A3681D
:1014F000C0221A7003B0F0BD0129D3D1DFF874C047
:10150000DCF8001041F08001CCF80010002184F8D4
:1015100049E284F85112BEF1000FCBD0616970B17D
:101520004FF0280E81F800E09842216817D95B003F
:10153000DBB20B704000E369C0B21870C3E74FF034
:10154000200E81F800E021685B00DBB20B70E369DC
:101550001870B8E7A36880221A7003B0F0BD40008D
:10156000C0B208705800E369C0B21870ABE700BFA2
:10157000006CDC023480044090F84A32032B39D8E6
:101580002DE9F043224C234A14F80380D75C83B042
:10159000B8F1000F2BD057B390F84B32002B89468F
:1015A000044614BF02210021404601F0DFFF012163
:1015B000384601F0C7FF0121384601F0D7FF0B255F
:1015C000A026404601F0C4FF013D20B915F0FF05FB
:1015D000014638460FD1002084F8510294F84B326E
:1015E00094F84A22009049462046FFF79FFD03B039
:1015F000BDE8F083704701F0A5FF3346013BFDD104
:101600000121384601F09EFF3346013BFDD1D8E76A
:101610001C6F0000186F00002DE9F04115460446CC
:101620000F46984601F0A8FF0DB9D4F8685201F0B2
:10163000A3FFA3681A789106064609D5B4221A704A
:1016400094F84832013B012B42D90120BDE8F081DA
:10165000E5B9E3681B7803F0200303F0FF02002BD9
:10166000F6D1A36884F84922B0221A70A3681A78C8
:10167000920614D51B7803F0200303F0FF00002B23
:10168000DED1042384F85132BDE8F08101F074FF0B
:10169000801B8542DDD8A3681A789206EAD43946C1
:1016A0002046FFF769FFE3681B7803F0200303F08F
:1016B000FF0223B9A36884F84922B0221A70A368F4
:1016C0001B7803F0200303F0FF00002BB8D1D8E70C
:1016D00003F060F997B1012F10D10F4B1B788342B3
:1016E000B3DB0F2813DD67B1012F0AD1A0F110037E
:1016F000094ADBB213703846BDE8F081074B1B780E
:10170000EDE7A0F11003054ADBB213709DE701205D
:1017100088F80000BDE8F08119E400E018E400E07A
:101720000369490083F83C11036900220121C3F8D1
:101730004412027183F85122704700BF2DE9F04333
:10174000044683B0D0F8440200258DF8075070B1EC
:1017500090461E460BB9D4F86862E36812221A70EC
:1017600020460DF107033246FFF756FF10B903B0CC
:10177000BDE8F08394F84832B3B19DF807209AB9D8
:10178000591E0129F3D80125022B84F8515284F8FF
:101790005082C4F840225ED0A368F0221A702369F8
:1017A00094F83C211A70E2E701F0E6FE012384F888
:1017B0005132D4F8445284F850820746EDB104F215
:1017C0003B1800254FF0020936BB236918F8012F9A
:1017D0001A70E26813789807FCD582F80090E268E6
:1017E0001378DBB2D9061DD4DB0724D4D4F84432F5
:1017F0000135AB42E8D894F85082D4F84432AB4279
:1018000025D9042384F85132B8F1010FA3680CBF25
:101810008022B0221A70AAE701F0AEFEC01B8642F9
:10182000D3D8E8E71023072184F851121370A36876
:1018300080221A709BE735B1062384F85132A368E1
:1018400080221A7093E7052384F85132F7E70023CA
:1018500084F85132D8E7D4F84432042B9CD9D4F818
:10186000641284F85A520E68D4F84432F27108684F
:10187000357104F59F77727137600572427282721A
:10188000C2720D68033BEB83096818465B42EB604C
:10189000C882D4F8641220690B68B0F1804F9A7145
:1018A00018611A755A750B6801D39A6832B900220B
:1018B00001205A729A72DA7218720B6800221A7634
:1018C0005A769A76DA7667E72DE9F04383B00025F9
:1018D0008DF807509DF828700B9E2BB1B3F5827FD1
:1018E00005D3082380F8513203B0BDE8F083C0F877
:1018F0003451C0F85432C0F838510EB9D0F868628B
:10190000C368904612221A700DF10703324604464E
:10191000FFF782FE0028E7D094F84832C3B19DF863
:101920000720AAB9591E0129DED802218B4284F86A
:10193000507284F8511200F0EA80A268F021117010
:101940004FEA480343F001032269DBB21370CBE78F
:1019500001F012FE4FEA4803226984F8507243F006
:101960000103DBB2022184F851121370E2680546CC
:1019700013789807FCD502231370E2681378DBB262
:10198000D90608D4DA070FD5A3680521802284F888
:1019900051121A70A8E71023072184F8511213700E
:1019A000A36880221A709FE7D4F854320322012BD7
:1019B000A36884F851220CBFA822A0221A702369C0
:1019C0001B7802274FF000084FF0B009D4F83821F7
:1019D000D4F854329A4287D294F85132032B83D1EF
:1019E000E26813789B07FCD51770002E46D1D4F817
:1019F0003831D4F8542202339A422ED13346A268A9
:101A0000A8211170D4F83811D4F854220131914230
:101A100065D3A26884F8598282F800902269107810
:101A2000D4F83821A1180132C4F8382181F83000E7
:101A3000002B4CD194F8503284F85182012BC5D13F
:101A400000232022013AFDD1A26880211170002BD1
:101A5000BCD0012384F85932B6E7D4F838310133C9
:101A6000934244D2002322691078D4F83821A11877
:101A70000132C4F8382181F83000E8E701F07CFD3C
:101A8000D4F83831D4F85422401B991C86428CBFBC
:101A9000002301239142B2D08642DED894F8593215
:101AA0000BB90123ABE7D4F8381101318A421AD8B7
:101AB000A36884F8598283F8009023691978D4F8D0
:101AC0003831E2180133C4F8383182F8301094F814
:101AD00050320422012B84F85122B2D0B9E7002BF6
:101AE000C1D094F85932002BE2D10123BBE7A3689F
:101AF00084F8598283F8009023691978D4F8383132
:101B0000E2180133C4F8383182F8301092E7D4F883
:101B10005432042B7FF611AFD4F8641220690B689D
:101B2000012584F85A52B0F1804FDA7118601A71A9
:101B30005A710B6801D39A6832B9002201205A7297
:101B40009A72DA7218720B68D4F86402D4F85412DC
:101B5000056800221A735A739A73DA73AA710368BC
:101B60006A7504F130062E6101262E755A729A723A
:101B7000DA721E724B1E0168CB8300681A465B4204
:101B80008B61C282D9E600BF70B51546044601F0EC
:101B9000F3FC0DB9D4F8685201F0EEFC064694F857
:101BA0005132002B50D094F85132052B4CD094F880
:101BB0005132062B48D094F85132072B44D094F878
:101BC0005132042B40D094F85132082B3CD0002DD8
:101BD000E5D001F0D1FC801B8542E0D801F0CCFCBF
:101BE000801B854232D894F84832022B2ED194F8CB
:101BF0005A325BB394F851329BB194F85132052BB1
:101C00000FD094F85132062B0BD094F85132072B99
:101C100007D094F85132042B03D094F85132082B9A
:101C2000E8D1042384F8513294F85132012B11D1B8
:101C3000042384F851328023013BFDD194F85102F2
:101C4000B0FA80F0400970BD002DC7D194F8513230
:101C5000012BEDD094F85132022BE9D094F8513297
:101C6000032BE8D1E4E700BF70B50C4615460646E5
:101C70001A462946049B2046FFF760FD049A294630
:101C80002046FFF781FF336993F85132043B042B60
:101C90000CD8DFE803F0030907030500042070BD3A
:101CA000012070BD032070BD022070BD307900306E
:101CB00018BF012070BD00BFF0B583B09DF8206053
:101CC00013B9002003B0F0BD099F04460D468DE80E
:101CD000C000FFF7F9FD099A29462046FFF754FF97
:101CE0000028EED0D4F8380103B0F0BDD0F834218C
:101CF000D0F838319A4208D2D0F834315A1C034413
:101D0000C0F8342193F8300070474FF0FF3070472F
:101D1000F8B5C16887680D783B78DBB203F0200224
:101D2000EDB212B313F0100F90F85A3277D0022BA5
:101D300000F0D28090F85A32032B00F0CD8090F85A
:101D40005132012B00F0D18190F85132DBB2022BDD
:101D500000F0028290F85132042B00F0878180233A
:101D60003B70C36802221A70F8BD02F0FF06EA0653
:101D7000044623D405F0400202F0FF0012BB03F03A
:101D8000100303F0FF06002B7CD015F0010540F096
:101D90006281D4F84022D4F844329A4207D2D4F86F
:101DA00040325A1C2344C4F8402293F83C51236922
:101DB0001D70A368D0221A70E16868E010236F06D6
:101DC0000B7028D594F851320A2B00F0DA8005F018
:101DD000040505F0FF03002D5CD0A3680021D0228C
:101DE000092084F85102C4F844121A702269D4F808
:101DF000601213785B0884F8523209B1884722696F
:101E0000D4F84432002B00F02E8194F83C61167017
:101E10000123C4F84032E36802221A70F8BD022B95
:101E200000F0888090F85A32032B00F08380D0F8BD
:101E30003831D0F854220233934200F0078190F8F1
:101E40005132042B00F0FD80D0F838310133934239
:101E500080F0D58090F85132042B00F0CB80D0F880
:101E600038310269591CC0F838110344127883F8DC
:101E7000302090F85132042B00F02E81C3680222EA
:101E80001A70F8BD94F851320A2B00F044810223F5
:101E90000B70F8BD94F84A2284F85832012A00F0F9
:101EA0006B81002A00F06281022A00F09381032AEC
:101EB00000F00D81A368C0220A20002184F851029D
:101EC000C4F838111A7023691B785B0884F8523201
:101ED000E36802221A70F8BDD0F8642213689B8B65
:101EE0001C0603D590F85A32022B78D090F85A325B
:101EF000032B52D0BA4B12791C6801239340234222
:101F0000C5D0B84BB8491A70D0F8642212790A705B
:101F10000023E90680F85A3240F1D780C2681221C6
:101F2000072480F851421170826880211170C0F836
:101F30004032F8BDD0F864321A68928B120603D58D
:101F400090F85A22022A3FD090F85A22032A00F031
:101F50009480A34C1A79246801239340234296D09D
:101F6000A149A04B0A70D0F8642212791A708268D5
:101F70000023802180F85A3280F851321170C168F4
:101F800085E7D4F85C32002B3FF421AF0022C4F87F
:101F90003421D4F83801984719E70B781D06FCD591
:101FA000924B12791A70002380F85A32D0F84432DA
:101FB0000269013BC0F84032D0F84032034493F844
:101FC0003C311370C16862E7864A1B7913708368DD
:101FD000E8221A700323C16880F85A3257E7814B10
:101FE00012791A708368F0221A700323C16880F88E
:101FF0005A324CE790F85932002B3FF430AF90F84A
:1020000051220023042A80F8593201D080F851323D
:102010008368B0221A70D0F838310269591CC0F8B0
:1020200038110344127883F8302090F85032012B95
:102030007FF41FAF2023013BFDD1836880221A70FB
:1020400017E790F85932002B7FF4FEAEE8233B707F
:10205000D0F85422F8E6C0233B702369E1681B786E
:1020600084F8510213E784F83C31D0E690F85032FE
:10207000012B4DD0B0233B7000E75C4A1B791370F5
:10208000002380F85A3290F85122042A18BF80F8B1
:1020900051328368B0221A70D0F854320269013B81
:1020A000C0F83831D0F83831591CC0F83811034421
:1020B000127883F8302090F85032012B05D120237C
:1020C000013BFDD1836880221A70C168DFE6484970
:1020D0001F2001F065F9EDE690F85932002B7FF4EE
:1020E000CDAE012380F85932C8E605F0100303F0A5
:1020F000FF02002B46D115F0010551D080F85A227D
:10210000D0F84032002B40F08F80052380F8513208
:1021100080233B70B2E694F84A2284F85862012A80
:1021200000F09280002A78D0022A00F09480032ADE
:1021300000F0A48023691B78D4F83821B2F5817FA0
:10214000DBB23FF6A4AED4F83821A0180132C4F8AF
:10215000382180F830309AE6EC0632D4E9074BD5C6
:102160000522802380F851223B7087E60322214913
:10217000112001F015F99DE603221E49122001F0FD
:102180000FF997E600231222072480F85A3280F8CC
:1021900051420A70826880211170C0F84032F8BD47
:1021A000D0F840320133C0F84032D0F84422934294
:1021B0003ED390F8503280F85152012B7FF45AAF41
:1021C000A6E70722122380F851220B708368802231
:1021D0001A70F8BD032206491E2001F0E1F869E6F5
:1021E0002C8000401F8000401E8000401C8000406A
:1021F000812300007523000090F85A22012A31D073
:10220000D0F85432012B0CBFE823E023032280F8DE
:1022100051223B7003691B7830E6234903221120C9
:1022200001F0BEF8E16885E7062380F851326FE7D8
:1022300090F85A32012B27D0D0F84032026903447B
:1022400093F83C31137019E617490322122001F06C
:10225000A7F8E1686EE7154903221E2001F0A0F8F7
:10226000E16867E7E12280F85A323A70D0F86422D8
:102270000F4B12791A7003691B78FFE50B491F2079
:1022800001F08EF8E16855E70222F12380F85A2226
:102290003B70D0F86422064B12791A70036990F8EB
:1022A0003D211A70EAE500BF75230000812300007C
:1022B0001B80004000210148FFF72ABD0888FF1F4E
:1022C00001210148FFF724BD748AFF1FC3681B78F2
:1022D00003F02003CBB903F0FF0290F84A32012B40
:1022E00010B5044680F8512227D053B3022B32D0C8
:1022F000032B37D0D4F85C32CBB10022C4F83421A0
:10230000D4F83801BDE81040184790F8583201332E
:10231000DBB2012B80F858320AD990F84A32012BEF
:1023200024D093B1022B13D0032B18D0704710BDCB
:1023300090F84932012BF0D1F8E7122001F0ACF807
:10234000D8E7112001F0A8F8D4E7112001F0A4B8D3
:102350001E2001F0A1B81E2001F09EF8CAE71F2040
:1023600001F09AB81F2001F097F8C3E7122001F09E
:1023700093B800BF00210148FFF7A8BF0888FF1FDE
:1023800001210148FFF7A2BF748AFF1F2DE9F8431E
:10239000134BDFF85C90DFF85C80124E124D1E602C
:1023A00000244FF47A774A4641461C711C739F60A3
:1023B00018465C731D6103F0ABFD0C4B4FF0010E32
:1023C00005F51B751C711C7383F80DE04A464146E8
:1023D00018461D619F601E60BDE8F84303F098BD7C
:1023E000C497FF1F006F00000888FF1FB097FF1FF2
:1023F000FC87FF1FF910000010B50446006803F0C9
:10240000C9FD204610BD00BF38B543688B4201D3DB
:10241000012038BD0D4604460131006804F0E2F8A1
:102420000028F6D0A36884E82100002BF0D10370C7
:10243000EEE700BFF8B50446154632B9036803B1AC
:102440001A700023A3602046F8BD0E461146FFF720
:10245000DBFF074648B9206810B103F09BFD2760F9
:1024600000236360A3602046F8BDA5603146206864
:1024700004F0C2FAE7E700BF38B500230446036062
:1024800043608360037341B108460D4604F018FBB6
:10249000294602462046FFF7CDFF204638BD00BF43
:1024A00003F070BD03F076BD08B5FEF77DF8FEF7CA
:1024B000DBF800F001F8FAE710B5154C237803B10A
:1024C00010BD0123237002F0BFFA58B900F000FEDE
:1024D00070B902F009F988B900F080FAA0B90023B8
:1024E000237010BD00F0A6F800F0F2FD0028F0D037
:1024F00002F0BEFC02F0F8F80028EDD002F06CFD0E
:1025000000F06CFA0028EAD002F01AFEE7E700BFFC
:10251000D897FF1FF0B572B699B902688AB10379EE
:102520000F2B0ED8274C218841FA03F5ED070AD569
:1025300003F1007303F59063B2EB431F03D162B65E
:10254000F0BD204C2188002341FA03F212F0010271
:1025500007D00133102BF7D162B60022037102605D
:10256000F0BD01259D402943218062B6164E174DCE
:10257000174FDFF864E0D9B20171346844F0020407
:1025800034602C6844F002042C60A6F58026822476
:10259000A5F5802503F100733C6003F59063223EAE
:1025A000243D0C4C8EF800105B01317029702170B5
:1025B00003601A605A609A60DA601A615A619A611F
:1025C000DA61F0BDDA97FF1F408004403C80044090
:1025D000008000401F8000401A80004003790F2BCC
:1025E00011D8094A10B4137072B6084904790A88E0
:1025F0000123A34022EA03030B8062B610220023CA
:1026000010BC0271036070471A800040DA97FF1F08
:1026100002F028BA02F0D2BA02F0FEB902F0D8B93C
:1026200002F012BA0846114602F038BA084602F023
:10263000B9BA00BF704700BF044B054A1A604FF497
:102640007A71002299601A711A737047DC97FF1F24
:10265000407000002DE9F84F214B1B6807460BB175
:1026600001221A70DFF888901E4D99F80040DFF8BB
:1026700084801D4E0134272C8ABF4FF0000A5FFA78
:1026800084FA5446AB462B78A34216D102F082F965
:1026900040281FDC33791B06F5D59BF80030013349
:1026A000272B86BF00221346DAB218F80330DBB2BC
:1026B000F3712A702B78A342E8D00C490A4BFFB281
:1026C00008F804700120AC22087089F800A0DA70C4
:1026D000BDE8F88FFF28D6DDFFF7EEFED3E700BF99
:1026E0006098FF1F5D98FF1F00C006405C98FF1FA9
:1026F0006498FF1FF497FF1F184A19491368F0B533
:1027000043F48053174C184D184FDFF878E01360EE
:10271000174E184A002323708EF80030164C2B7089
:102720000B703B7040F213373760144D1449C0F3FF
:1027300044364FF4517727601670C0F347142C27A6
:1027400000F01F004026547090724FF400349370D4
:102750001374D7702E700C60F0BD00BF348004403D
:102760005D98FF1FF097FF1F6498FF1F5C98FF1F85
:1027700008C0044000C006400CC0044031E400E042
:1027800004E100E0F197FF1F144B14499B7803F01C
:10279000EC0200F003031343420700F00F0248BFAE
:1027A00043F01003042A8B7013D00C4B0B4A5B7957
:1027B000C10603F0EF0348BF43F010035371937950
:1027C000820603F0EF03054A48BF43F010039371FC
:1027D00070478B7943F040038B71E6E700C00640F9
:1027E000F8B5124B1B68DB041DD5114C237823B1BF
:1027F000FFF762FE2378002BFAD10E4B0E4F0F4EDF
:102800000F4D104C104811494FF400321A6000234C
:10281000FB7040F2031232602A60226803700B7072
:1028200012B101231370F8BDF8BD00BF348004401D
:102830005C98FF1F84E100E000C0064008C004402F
:102840000CC00440EC97FF1FF097FF1FF197FF1F8C
:102850000A4A38B50546137803F0FF04002BFAD175
:102860000121284600F082FE2146284600F06AFE3B
:10287000034A044B52F835201A6038BD5C98FF1F9C
:102880005C7000006098FF1F09B140F080000F4AA3
:102890001378984219D010B40D4C2468E40412D572
:1028A00003F07F03082B02D10A4B00241C6000298F
:1028B00000F07F0314BF60214421082B03D1054B96
:1028C00041F440711960107010BC7047E08CFF1F1C
:1028D000348004400CC00440704700BF0D4B1B689F
:1028E00013F4805305D0212805D90B4B0020186024
:1028F000704718467047094B10B5074C53F83030F5
:102900002360012100F032FE236800221A700120AA
:1029100010BD00BF34800440EC97FF1F5C700000C6
:102920000C4B1B6813F4805306D00E2806D00A4ABD
:10293000537B03F0FE03537300207047074B064A96
:1029400040F202311960537B43F0010353730120BD
:10295000704700BF3480044000C0064004C00440FB
:10296000034B1B68DB0401D5FFF774BE704700BF43
:102970003480044070B5094E04464518AC4204F159
:1029800001040AD03368DB04F8D514F8010CFFF712
:1029900061FEAC4204F10104F4D170BD3480044006
:1029A00010B5044C237823B1FFF786FD2378002B64
:1029B000FAD110BD5C98FF1F064A074B1B781078B0
:1029C000DBB2C0B283422CBF273000F1FF30C01A07
:1029D000704700BF5D98FF1F6498FF1F054A064BB4
:1029E00010781B78C0B2DBB2984238BF4030C01AB2
:1029F000704700BFF097FF1FF197FF1F30B4154BD2
:102A0000154C1A782378D2B2DBB29A421ED0013329
:102A10003F2B0ED91149124B087819680023C0B218
:102A2000237021B1D31A1A2B01DC00230B7030BCA8
:102A300070470A480A49C05C0968DDB2C0B2257017
:102A40000029F4D09A4238BF4032EBE74FF0FF3014
:102A5000EDE700BFF097FF1FF197FF1F1C98FF1FC6
:102A6000EC97FF1F084A094B12781B78DBB29A4299
:102A700007D00133402B28BF0023054AD05CC0B2E9
:102A800070474FF0FF307047F097FF1FF197FF1F1F
:102A90001C98FF1F054B064A1B7806491268DBB2DB
:102AA0000B700AB100231370704700BFF197FF1F2E
:102AB000EC97FF1FF097FF1F30B42B4B1A79940649
:102AC0001FD52A48DA790378294901333F2B097841
:102AD000C8BF00238B42D2B203D0264CD9B2E254F5
:102AE0000170254A116861B1244A1278D2B293422A
:102AF00036BFC2F140029B1A9B18272BC4BF01238B
:102B00000B70194AD378DBB2180611D45A060DD5CA
:102B1000154B1B795B0609D5194B1A491B68002216
:102B20000A7003B11A70104B2C22DA7030BC704757
:102B300011790906EAD5144910480C780178C9B210
:102B40008C420DD04A1C272A84BF00210A460F4D13
:102B5000054C98BFD1B2AA5CD2B2E2710170D5E740
:102B60006C21D170D2E700BF00C00640F097FF1F74
:102B7000F197FF1F1C98FF1FEC97FF1F5D98FF1F29
:102B80006098FF1F5C98FF1F6498FF1FF497FF1F5A
:102B90002DE9F84F214B1B6807460BB101221A7033
:102BA000DFF888901E4D99F80040DFF884801D4EB4
:102BB00001343F2C8ABF4FF0000A5FFA84FA544672
:102BC000AB462B78A34216D101F0E4FE40281FDC6F
:102BD00033791B06F5D59BF8003001333F2B86BFB8
:102BE00000221346DAB218F80330DBB2F3712A7010
:102BF0002B78A342E8D00C490A4BFFB208F80470C6
:102C00000120BC22087089F800A0DA70BDE8F88FB6
:102C1000FF28D6DDFFF750FCD3E700BFF898FF1F71
:102C2000F598FF1F00A00640F498FF1FFC98FF1FB7
:102C30007098FF1F274A28491368F0B543F4806352
:102C400013600A78254F264E264D274C274900232E
:102C50003B7033702B7023700B70002A35D0152A0F
:102C600026D0234B1B78012B2AD0052B03D1214BD7
:102C70004FF451721A60204B204C2149C0F3443666
:102C8000C0F347151E7000F01F005D7004224FF066
:102C9000020E88273C26402598729A704FF4005007
:102CA00083F813E05A751F74DE7025700860F0BD5C
:102CB000144B40F213321A600D4B1B78012BD4D108
:102CC000114B4FF451721A60D5E7104B40F213329A
:102CD0001A60C6E734800440B098FF1F6C98FF1F4D
:102CE0006D98FF1FFC98FF1FF598FF1FF498FF1FBA
:102CF000E18CFF1F1CC0044000A006402DE400E052
:102D000004E100E018C0044044A0044040A0044096
:102D1000144B14499B7803F0EC0200F003031343B7
:102D2000420700F00F0248BF43F01003042A8B70E3
:102D300013D00C4B0B4A5B79C10603F0EF0348BF7D
:102D400043F0100353719379820603F0EF03054AB1
:102D500048BF43F01003937170478B7943F04003F1
:102D60008B71E6E700A00640214B1B685B053ED552
:102D700010B5204C237823B1FFF79EFB2378002B5E
:102D8000FAD11D481D4A1E4B4FF400540021046027
:102D9000D1701B78E3B1152B03D11A4B40F203120B
:102DA0001A60194B1B7803F07F03012B1AD0052BF7
:102DB00003D1164B40F203121A60154B1548164901
:102DC0001A68002303700B700AB10123137010BD41
:102DD000124B40F203121A600B4B1B7803F07F0377
:102DE000012BE4D10E4B40F203121A60E5E7704765
:102DF00034800440F498FF1F84E100E000A0064006
:102E0000B098FF1F18C00440E18CFF1F1CC0044095
:102E10006898FF1F6C98FF1F6D98FF1F40A004402B
:102E200044A004400A4A38B50546137803F0FF046D
:102E3000002BFAD10121284600F098FB21462846B4
:102E400000F080FB034A044B52F835201A6038BD6D
:102E5000F498FF1F5C700000F898FF1F09B140F064
:102E60008000174A1378984216D010B4154C246885
:102E700064050FD503F07F03012B1CD0052B11D067
:102E8000002900F07F0114BF6023442301290DD0E5
:102E9000052902D0107010BC70470B4943F44073F1
:102EA0000B60F7E7084B00241C60E9E7074943F48F
:102EB00040730B60EEE7054B00241C60E0E700BFA9
:102EC000E18CFF1F348004401CC0044044A0044037
:102ED000104B1A7882420AD00F490968490505D576
:102EE000AAB1152A09D068B1152801D01870704709
:102EF0000A4A40F213311160F8E7084A00211160D4
:102F00000028F1D1064A40F213311160EEE704497E
:102F10000A60E8E7B098FF1F3480044018C00440FE
:102F200040A004400D4B1B6813F4806305D021289A
:102F300005D90B4B00201860704718467047094BA5
:102F400010B5074C53F830302360012100F00EFB20
:102F5000236800221A70012010BD00BF3480044095
:102F60006898FF1F5C7000000F4B1B6813F48063B0
:102F700008D0122808D0142811D00C4A537B03F033
:102F8000FE03537300207047094B40F202321A606F
:102F9000064A537B43F00103537301207047054BEE
:102FA00040F202321A60F3E73480044000A0064089
:102FB0000CA0044014C00440034B1B685B0501D502
:102FC000FFF7E6BD704700BF348004402DE9F84F9D
:102FD000294B1B685A0548D5284B1B6805460BB181
:102FE00001221A7005EB010A554540D2DFF89C809A
:102FF000234CDFF89C90234F0AE015F8012B09F8C9
:103000000B20214A0123AA45137088F800602ED0B6
:1030100098F80030227803F1010BBBF13F0F86BF17
:103020000026B3465FFA8BF69345E6D1BC22FA70D0
:1030300005E03A7913060BD422789345DDD101F0EF
:10304000A9FC4028F5DDFF28F6DDFFF735FAF3E7A8
:10305000227801323F2A86BF00210A46D1B219F8F0
:103060000220D2B2FA712170E6E7BDE8F88F054B75
:10307000BC22DA70BDE8F88F34800440F898FF1F56
:10308000F598FF1F00A00640F498FF1FFC98FF1F53
:103090007098FF1F10B5044C237823B1FFF70CFA8A
:1030A0002378002BFAD110BDF498FF1F064A074B76
:1030B0001B781078DBB2C0B283422CBF3F3000F1E6
:1030C000FF30C01A704700BFF598FF1FFC98FF1F24
:1030D000054A064B10781B78C0B2DBB2984238BF65
:1030E0004030C01A704700BF6C98FF1F6D98FF1FDB
:1030F00030B4154B154C1A782378D2B2DBB29A4211
:103100001ED001333F2B0ED91149124B0878196894
:103110000023C0B2237021B1D31A1A2B01DC002383
:103120000B7030BC70470A480A49C05C0968DDB2C0
:10313000C0B225700029F4D09A4238BF4032EBE784
:103140004FF0FF30EDE700BF6C98FF1F6D98FF1F39
:10315000B498FF1F6898FF1F084A094B12781B7824
:10316000DBB29A4207D00133402B28BF0023054A27
:10317000D05CC0B270474FF0FF3070476C98FF1FB3
:103180006D98FF1FB498FF1F0D4B1B685B0516D58C
:1031900030B40C4B0C4CDA780C480D4902F0CB02E1
:1031A0004025DA705D74DA7842F03402DA70237800
:1031B0000268DBB20B700AB10023137030BC704799
:1031C0003480044000A006406D98FF1F6898FF1FE0
:1031D0006C98FF1FF0B4384B1A7912F0300F2CD0D6
:1031E00072B6997D01F0FF0200293DD062B6334FDF
:1031F000334938780D78334E1C46C0B2EDB2431CCB
:10320000402BE17928BF0023AB4202F1FF32C9B263
:103210001CBFF154184612F0FF02F0D12A4B1B6874
:10322000C2B23A704BB1A84236BFC5F14005401B4F
:1032300040192728C4BF01221A701F49CA78D2B288
:10324000150616D452060DD51B4B1B795B0609D506
:103250001E4B1F491B6800220A7003B11A70164BDF
:103260003C22DA70F0BC70474022D9795A7462B6B9
:10327000E3E70B791C06E5D5164B174E1C7833781F
:10328000E4B2DBB29C420ED0144D01E0A3420AD05E
:103290000133402B28BF00230879E85CC0B2C87115
:1032A000087D0728F2D9DBB2034933700B79180681
:1032B00044BF7C23CB70C5E700A006406C98FF1F7D
:1032C0006D98FF1FB498FF1F6898FF1FF898FF1FA5
:1032D000F498FF1FFC98FF1FF598FF1F7098FF1FC1
:1032E000704700BF10B40F4B53F8302092F8804263
:1032F0002CB1012369B182F8803010BC704703EB18
:10330000C0035B681A6841B922F002021A6010BC5F
:10331000704782F8003110BC704742F003021A6017
:1033200010BC70475C7000001C4A02EBC00301290E
:103330005B6811D004291BD052F83000002280F8BD
:10334000802229B1022920D0032922D01A60704797
:103350004FF480721A60704752F830004FF4A27236
:1033600080F880121A601A6822F020021A607047F2
:1033700052F830104FF4A272012081F880021A60D6
:103380001A6842F020021A60704740F203121A6075
:1033900070474FF481721A60704700BF5C70000084
:1033A000212817D8F8B5042A13D8DFE802F0494CD1
:1033B0004F1446002C4872B6236823F4702343F060
:1033C0008072C4F384011643236040F821502660C4
:1033D00062B6F8BD70474FF41026244B03EBC003D0
:1033E0000D465C68216811F4E06134D0204B214A1D
:1033F0002149C3F89C2104F140422048C3F8A4119C
:10340000A2F592211E4FC3F8A0017C291D48C3F8E4
:10341000A871C3F8AC01CDD9A2F594237C2B18D99F
:10342000A2F596237C2B19D9A2F598237C2B17D9CA
:10343000A2F59A227C2A15D9F8BD4FF43026CCE7A4
:103440004FF40026C9E74FF44026C6E74FF4202684
:10345000C3E70D48AFE7FFF767FFC7E70B48AAE7E9
:103460000B48A8E70B48A6E7E48CFF1F5C70000040
:103470000082FF1FD187FF1F7987FF1FA587FF1FCE
:103480004D87FF1F2187FF1F1C8DFF1F6C8DFF1FA6
:103490009C8DFF1FBC8DFF1F1A4B03EBC00010B4A7
:1034A000426802F14043A3F592217C2905D9A3F596
:1034B00094217C2913D8144900E0144972B613688A
:1034C000134C23F08773C2F3840023F4803343F05A
:1034D0008073136041F8204062B610BC7047A3F5BA
:1034E00096217C2909D9A3F598217C2907D9A3F530
:1034F0009A237C2BF1D80749E0E70749DEE7074923
:10350000DCE700BF5C7000001C8DFF1FE48CFF1F18
:10351000E1320000BC8DFF1F6C8DFF1F9C8DFF1FD3
:1035200030B4054B054D064C002210211A602A606C
:103530002060196030BC704714D0034004D00340B1
:1035400000D00340212801D8FFF7CCBE704700BF50
:10355000212806D8044B53F8303093F80002C0B24B
:1035600070470020704700BF5C700000212801D820
:10357000FFF7DABE704700BF72B60C490C4B0D4A1C
:103580001B680868126862B6520102D5322B88BFE8
:1035900001300949C3F5BB334FF47A72FF33A1FB05
:1035A000031302FB00F000EB931070470099FF1F1C
:1035B00018E000E004ED00E0ABAAAAAA2DE9F84368
:1035C000054672B6204F214B214A1B683C681268A1
:1035D00062B6520102D5322B88BF013495B3C3F5D0
:1035E000BB331C4EDFF86490DFF86480FF334FF488
:1035F0007A72A6FB031302FB04F404EB931472B675
:10360000D9F800103A68D8F800E062B6C1F5BB33CB
:10361000FF33A6FB03031EF0806FC4EB93134FF43C
:103620007A7002D0322988BF013200FB0233B3F531
:103630007A7F04D3013D05D004F57A74DFE7FEF705
:103640003BFFDCE7BDE8F8830099FF1F18E000E0CE
:1036500004ED00E0ABAAAAAAF8B52D4B2D49DFF87E
:10366000D0E0DFF8D0C02C4E2C4D2D4C2D4A2E4FE3
:103670004FF4000018604FF0807018604FF0007039
:1036800018604FF0806018604FF0006018600020F4
:10369000086028234BF6FF71CCF80010CEF80030FC
:1036A000336013602B6023603B60B3629362092236
:1036B00045F8242CC4F8D80F05F57F65C7F8D41F4A
:1036C00007F5FF2707F5FA67C6F8F83F2B6006F500
:1036D000FF26C4F8D42F05F5FD2504F5FF24386036
:1036E00006F2F4761148316005F5FF6504F5FD64D6
:1036F0002B602360026001F0B1FA3220FFF75EFF19
:1037000000F0FCFC4FF4AF70BDE8F840FFF756BF87
:1037100008E100E00480034014800340248003405B
:103720002C8003401C8003403480034000800B4009
:103730000C80034008800340431E032B14D872B64C
:103740000A4951F8230068B170B4094C058834F86F
:103750001320466841F82360521B24F8132062B6F8
:1037600070BC704762B67047002070475C99FF1FBD
:10377000DC9AFF1F013803280BD872B6074B53F8A9
:10378000203043B100205B680130002BFBD162B6D2
:103790007047002070471846F9E700BFB099FF1F37
:1037A000F0B472B61A491B4E012311F8014B194FA0
:1037B0009A00240742F0010505D556F8324064B15D
:1037C00056F83520BAB10133052BEED162B6124B53
:1037D00000221A70F0BC01F0E3BC0F4C0F4D2178B1
:1037E00047F8325007EB431308304A1E58602270E6
:1037F00062B6F0BC70470849094B0A7847F8353083
:1038000007EBC5030830013A58600A7062B6F0E76A
:103810008C7200000080FF1FD999FF1F88004000B4
:10382000C8004000431E032B1DD81B4A400140F036
:10383000100030B4104472B6184CE25C032A1BD856
:10384000DFE802F00212151703220D88E25410F08F
:10385000080F14BFC823882343EA054308310360D7
:10386000416062B630BC704708300222EDE70522A5
:10387000EBE708300422E8E7094A52F8230038B1A0
:10388000084A52F82300416042F8231062B6E9E783
:1038900042F82310034AF7E70080FF1FE899FF1F53
:1038A000B099FF1FC099FF1F2DE9F04FDFF800A36B
:1038B000DFF800B387B044E0A84F4FEA930807EB66
:1038C000C809013ED9F8042003F00803F6B2A2F1BA
:1038D000080003F0FF04002B40F0FC8057F838305C
:1038E0001B0C99B222F8081C002B00F0EA809C4BBC
:1038F00022F8064C42F8044C53F82620002A00F027
:103900002982984D55F826305860974C45F8260086
:1039100034F81630194424F8161001F021FC002860
:1039200000F01182914A924B19F0080F00F1080043
:1039300018BF1346C9F8040047F8383008238AF83E
:1039400000309AF80040E4B260071AD5894B1B7822
:10395000A3B189490A7802F0FF0322B1013BDBB22F
:103960000B7003B900BE85490A7802F0FF032AB143
:10397000013BDBB20B70002B00F0BB8104238AF803
:10398000003004F0080303F0FF02002B00F0C680B3
:103990009BF80030DBB21E098ED19C086F4F57F8A0
:1039A000342007EBC401C2F38302013A49680C2AB0
:1039B00000F28380DFE802F0777781818181818165
:1039C00040818181070008686D4B6E4D0193674B04
:1039D0004A686D4E47F8343081B240F28164684BDA
:1039E0006A60286000220120A1421A603A61BA612F
:1039F000307000F2E180B1F5D06F80F02582B1F532
:103A0000817F00F0DE8100F2C181802900F03482E4
:103A1000822940F0DC81A9885C4B042900F2D8811E
:103A20005B4C89000B44227062701A78930740F156
:103A300022832070022023E2514B01931A683AB38B
:103A4000544B514E5449188834780D784028864696
:103A500045F0020828BF4FF0400E002C84F001040E
:103A60003470CEEB00000CBF8824C82407EBC806D6
:103A700080B285F0010544EA0E447260188047F870
:103A8000384072440D70002800F0B780019B1A6026
:103A90003C4B1A88B2F5A06F0FD100219A7859706B
:103AA0003E4B1A7009E0374A108842F221029042D8
:103AB00000F0A8802D4A47F83420394A01231370BA
:103AC0003CE72A4A2A4B19F0080F18BF134647F85B
:103AD000383033E701F064FB324A334952F826307C
:103AE000002B00F03B8158688C5D42F8260003F102
:103AF0000802C9F80420032C05D8DFE804F02C02E2
:103B0000292602228A551A8819F0080F0CBF88232B
:103B1000C82343EA024347F838300FE7E00700F1D3
:103B2000EB80210600F12881A20706D51F4A204913
:103B300013780220DBB213700870E30602D51C4B29
:103B400010221A7007B0BDE8F08F04228A55DAE718
:103B500005228A55D7E703228A55D4E70080FF1F44
:103B60005C99FF1F0899FF1FDC9AFF1FC8004000E7
:103B700088004000E499FF1F6D99FF1F659AFF1FA1
:103B80000499FF1FD099FF1F6C99FF1FC0200740A9
:103B9000DC99FF1F1899FF1FD899FF1F9820074035
:103BA00094200740B099FF1FE899FF1F8820074025
:103BB000802007409020074042F22104A14200F0FB
:103BC000948043D8B1F5086F00F0A881B1F5106F6B
:103BD00040F0FD80B84AB94CA978117004F1800515
:103BE00003E00834AC4200F09E81236A1906F8D540
:103BF000606A083801F0D4FAF3E7BEF1400F18BF4D
:103C0000002243E7AE4ACD1D11F8013B02F8013F07
:103C1000A942F9D1AB4A1268862A00F01181AA495B
:103C2000AA4E0A78307882F00105002842F002029C
:103C30000D700CBF8821C82147F8321007EBC20273
:103C400080F0010000213070516033E742F22124FE
:103C5000A14240F0FE81DFF8BCC29D4B9D49AC788B
:103C6000DCF800501D6081460C70002002908046F8
:103C70008446044694490D7845F0020E07EBCE03C6
:103C8000B9F1000F5C600CBF8824C82444EA080323
:103C900085F0010447F83E3032700C70DFF81CE20A
:103CA0008A4BDFF82482002840F09880BCF1400F56
:103CB0001BD144F0020407EBC403029FDFF8FCE1D0
:103CC0005F60002A40F09F80020442F088020744AF
:103CD0004EF8342086F800900D703B46402804D101
:103CE00000207D4A019910800B607C4A01231370EB
:103CF000E3E600F08FFF41E6704B784872491A61A5
:103D00004FF0020E80F800E0754F0A707549196097
:103D10009960754E754D764C9A610D213970FF2171
:103D20003170DFF8F4E129702270724D724A8EF81A
:103D300000109F27012406F8047C5D600470DA609F
:103D400007B0BDE8F08F6D4A47F8380013780133AB
:103D50001370F3E543F82600694DD6E58B5D032B20
:103D600067D801A252F823F03D3900003D39000028
:103D7000BD3D0000B73D000059495C4B80220D203D
:103D800008701A70A2077FF5D8AECFE640F2023273
:103D9000914240F05681A98801F07F01042916D88C
:103DA0006A88A2B94E4C89000C448146217841F0C2
:103DB0000201217059E701238B55BFE500238B5584
:103DC000BCE5A98801F07F01042940F24781444BFA
:103DD0000F221A70414A012313706EE640287FF6C5
:103DE00068AF44F002040EEBC401029E4E60AAB11B
:103DF000444A83F800903346403888F800504033F6
:103E00004EF834206DE70204029B86F8009042F0E1
:103E1000C8020D7003444EF834205FE783F8009029
:103E2000029B304A88F80050403840334EF8342026
:103E300057E719F0080F0CBF022303238B557DE5CC
:103E4000314A0F211170EAE6304A5468002CBED086
:103E50006888B5F804E003E00C325468002CB6D052
:103E600013888342F8D153887345F5D1000A03289B
:103E70000CBF2078108903E0254C0220227062706C
:103E8000EA88824280F00C810F490D78402A45F083
:103E9000020E944607EBCE0028BF4FF0400C04EB17
:103EA0000C0344600293CCEB02004FEA0C484FF045
:103EB00001090022C824E9E6E499FF1F0080FF1FE2
:103EC000E39AFF1FE49AFF1FD899FF1F6C99FF1F09
:103ED000EC9AFF1F749AFF1F1899FF1F9420074048
:103EE000C02007408800400088200740802007400D
:103EF000982007401C99FF1F7099FF1FD999FF1F39
:103F00000899FF1FC80040006D99FF1F90720000C4
:103F1000DC99FF1F0099FF1F8C200740684A694CFD
:103F200012782270ACE76849684B694A0291694986
:103F3000694C6A4D039405964FF0000988461C466B
:103F400016460495206828B1456801F029F92846ED
:103F5000002DF9D100232360049B30681A4600230A
:103F600042F8293028B1456801F01AF92846002D99
:103F7000F9D100223260029A98F8003011460022EE
:103F800041F8042B039A0291023B4FF0000122F802
:103F90001910032B07D8DFE803F0340234024FF086
:103FA000010388F8003009F10109B9F1040F04F1A7
:103FB000040406F1040608F10108C3D1484B059E2C
:103FC000DFF83091DFF8308100211970012518F8F1
:103FD000013B09F8043B1A0718D4AC0044F0020274
:103FE00044F00304002347F8323047F834303D4BA7
:103FF000994505F10105EAD196F8009089F0010292
:1040000033E64FF0000388F80030CCE701F0A8F861
:10401000AC0007EB451300F10802002837D05A60C6
:10402000314B47F8343001F09BF844F0010307EBC3
:10403000C30200F1080100B351602C4A47F8332055
:10404000CCE7B1F5A06F7FF4C2AE00224FF00109BA
:104050000BE642F221329142F7D0B8E66A88002A94
:104060007FF4B5AE224C89000C448146217821F0C2
:1040700002012170F9E5022002E7194B44F0010228
:104080001B7847F83200164A01331370A6E7144B29
:10409000134A1B78AC00013347F834001370C2E7B1
:1040A0004028844628BF4FF0400C04EB0C03CCEBB7
:1040B00000004FEA0C48029300224FF00109D9E5B5
:1040C000E499FF1FDC99FF1FC099FF1F5C99FF1F38
:1040D000B099FF1FE899FF1FDC9AFF1F0899FF1F87
:1040E000D999FF1FD420074088004000C800400035
:1040F000C0200740C42007408C7200002DE9F8431F
:10410000204C01F073F8002204F1880023461A6065
:104110005A60083383424FF00001F8D11A4A1B4F0E
:1041200013681B4D1B481C4EDFF87880DFF878C001
:10413000DFF87890DFF878E043F480231360C4F36D
:1041400007233B70C4F307432B70240EFF2302F5B3
:1041500028320470114D88F8003011488CF8003076
:10416000D4323370012389F8003070268EF80010A5
:104170004FF40074102107F8183C2E700460117081
:10418000BDE8F8830080FF1F348004409C20074076
:10419000B0200740B42007401020074049E400E069
:1041A00008E100E080200740882007409420074075
:1041B00000210740274A28491368F0B543F40063FB
:1041C00013600A78254F264E264D274C2749002399
:1041D000092A3B7033702B7023700B7035D01A2A6C
:1041E00026D0234B1B780A2B2AD01F2B03D1214B1F
:1041F0004FF451721A60204B204C2149C0F34436D1
:10420000C0F347151E7000F01F005D7004224FF0D0
:10421000020E88273C26402598729A704FF4004081
:1042200083F813E05A751F74DE7025700860F0BDC6
:10423000144B40F213321A600D4B1B780A2BD4D169
:10424000114B4FF451721A60D5E7104B40F2133204
:104250001A60C6E734800440C48DFF1F5C9AFF1FBC
:10426000F199FF1F649AFF1F5D9AFF1FF099FF1FCE
:10427000C58DFF1F00D0044000B006402FE400E0D1
:1042800004E100E004D0044010B004400CB004404D
:10429000144B14499B7803F0EC0200F00303134322
:1042A000420700F00F0248BF43F01003042A8B704E
:1042B00013D00C4B0B4A5B79C10603F0EF0348BFE8
:1042C00043F0100353719379820603F0EF03054A1C
:1042D00048BF43F01003937170478B7943F040035C
:1042E0008B71E6E700B00640224B1B681B053FD5EB
:1042F00010B5214C237823B1FEF7DEF82378002B8C
:10430000FAD11E481E4A1F4B4FF40044002104609E
:10431000D1701B78092B1CD01A2B03D11A4B40F2F9
:1043200003121A60194B1B7803F07F030A2B1AD073
:104330001F2B03D1164B40F203121A60154B16487F
:1043400016491A68002303700B700AB10123137019
:1043500010BD134B40F203121A600C4B1B7803F094
:104360007F030A2BE4D10F4B40F203121A60E5E7FA
:10437000704700BF34800440F099FF1F84E100E0E3
:1043800000B00640C48DFF1F04D00440C58DFF1F40
:1043900000D00440EC99FF1F5C9AFF1FF199FF1FAA
:1043A0000CB0044010B004400A4A38B505461378F2
:1043B00003F0FF04002BFAD101212846FFF7D6F8BD
:1043C00021462846FFF7BEF8034A044B52F8352031
:1043D0001A6038BDF099FF1F5C700000609AFF1FE3
:1043E00009B140F08000174A1378984216D010B4F3
:1043F000154C246824050FD503F07F030A2B1CD02D
:104400001F2B11D0002900F07F0114BF602344232B
:104410000A290DD01F2902D0107010BC70470B491B
:1044200043F440730B60F7E7084B00241C60E9E796
:10443000074943F440730B60EEE7054B00241C6012
:10444000E0E700BFC58DFF1F3480044000D004406A
:1044500010B00440124B1A7882420CD011490968FE
:10446000090507D5092A16D01A2A0AD009280DD01D
:104470001A2801D0187070470B4A40F213311160AE
:10448000F8E7094A002109281160F1D1074A40F2F2
:1044900013311160EEE7054A00211160E6E700BF25
:1044A000C48DFF1F3480044004D004400CB004408D
:1044B0000D4B1B6813F4006305D0212805D90B4B65
:1044C00000201860704718467047094B10B5074C1C
:1044D00053F8303023600121FFF748F823680022A9
:1044E0001A70012010BD00BF34800440EC99FF1FFA
:1044F0005C7000000C4B1B6813F4006306D0172897
:1045000006D00A4A537B03F0FE0353730020704722
:10451000074B064A40F202311960537B43F0010316
:1045200053730120704700BF3480044000B0064040
:1045300008B004402DE9F84F234B1B681A053BD502
:10454000224B1B680BB101221A70DFF89090204DAE
:1045500099F80040DFF888801E4E0134272C8ABF6E
:104560004FF0000A5FFA84FA54460746AB462B78B0
:104570009C4216D100F00EFA40281FDC33791B064E
:10458000F5D59BF800300133272B86BF0022134658
:10459000DAB218F80330DBB2F3712A702B789C4240
:1045A000E8D00D490B4BFFB20120BC2208F8047083
:1045B000087089F800A0DA70BDE8F88FFF28D6DD12
:1045C000FDF77AFFD3E700BF34800440609AFF1FF5
:1045D0005D9AFF1F00B00640F099FF1F649AFF1F0D
:1045E000F499FF1F2DE9F84F294B1B681A0548D590
:1045F000284B1B6805460BB101221A7005EB010A16
:10460000554540D2DFF89C80234CDFF89C90234F27
:104610000AE015F8012B09F80B20214A0123AA45CD
:10462000137088F800602ED098F80030227803F1DB
:10463000010BBBF1270F86BF0026B3465FFA8BF64E
:104640009345E6D1BC22FA7005E03A7913060BD403
:1046500022789345DDD100F09DF94028F5DDFF2853
:10466000F6DDFDF729FFF3E722780132272A86BF1E
:1046700000210A46D1B219F80220D2B2FA71217093
:10468000E6E7BDE8F88F054BBC22DA70BDE8F88F8D
:1046900034800440609AFF1F5D9AFF1F00B00640FF
:1046A000F099FF1F649AFF1FF499FF1F10B5044C87
:1046B000237823B1FDF700FF2378002BFAD110BD3A
:1046C000F099FF1F064A074B1B781078DBB2C0B287
:1046D00083422CBF273000F1FF30C01A704700BF63
:1046E0005D9AFF1F649AFF1F054A064B10781B78DE
:1046F000C0B2DBB2984238BF4030C01A704700BF2A
:104700005C9AFF1FF199FF1F30B4154B154C1A78B6
:104710002378D2B2DBB29A421ED001333F2B0ED99E
:104720001149124B087819680023C0B2237021B1D7
:10473000D31A1A2B01DC00230B7030BC70470A48D7
:104740000A49C05C0968DDB2C0B225700029F4D006
:104750009A4238BF4032EBE74FF0FF30EDE700BF41
:104760005C9AFF1FF199FF1F1C9AFF1FEC99FF1F16
:10477000084A094B12781B78DBB29A4207D0013302
:10478000402B28BF0023054AD05CC0B270474FF0D1
:10479000FF3070475C9AFF1FF199FF1F1C9AFF1FA3
:1047A0000D4B1B681B0516D530B40C4B0C4CDA783E
:1047B0000C480D4902F0CB024025DA705D74DA78BE
:1047C00042F03402DA7023780268DBB20B700AB16F
:1047D0000023137030BC70473480044000B00640A2
:1047E000F199FF1FEC99FF1F5C9AFF1FF0B4384B43
:1047F0001A7912F0300F2CD072B6997D01F0FF02B9
:1048000000293DD062B6334F334938780D78334EA6
:104810001C46C0B2EDB2431C402BE17928BF0023F7
:10482000AB4202F1FF32C9B21CBFF154184612F07C
:10483000FF02F0D12A4B1B68C2B23A704BB1A842BA
:1048400036BFC5F14005401B40192728C4BF0122CF
:104850001A701F49CA78D2B2150616D452060DD561
:104860001B4B1B795B0609D51E4B1F491B68002299
:104870000A7003B11A70164B3C22DA70F0BC704714
:104880004022D9795A7462B6E3E70B791C06E5D564
:10489000164B174E1C783378E4B2DBB29C420ED034
:1048A000144D01E0A3420AD00133282B28BF002376
:1048B0000879E85CC0B2C871087D0728F2D9DBB27C
:1048C000034933700B79180644BF7C23CB70C5E7CE
:1048D00000B006405C9AFF1FF199FF1F1C9AFF1F52
:1048E000EC99FF1F609AFF1FF099FF1F649AFF1F4A
:1048F0005D9AFF1FF499FF1F024A1368013313608A
:10490000704700BF0099FF1F08B5104C08E02368EE
:1049100059050DD423681A050FD42368DB0411D47C
:1049200023685803F3D5FEF7BFFF23685905F1D577
:10493000FEF750FC23681A05EFD5FFF757FF2368F1
:10494000DB04EDD5FEF7B8F8EAE700BF3480044099
:1049500008B5FFF7D9FF00BF014B10221A8070473E
:1049600000200540704700BF094908B50B6830B109
:104970006A461844A2F58052904202D20860184656
:1049800008BD01F0D1FA0C2303604FF0FF3008BDE1
:10499000C88DFF1FEFF3138070B9EFF310836BB96D
:1049A000EFF305825AB94FF48070EFF311832BB106
:1049B000984228BF184670474FF0FF3070470F2AC3
:1049C00001D81846F1E7014BD05CEEE7F0E300E0D8
:1049D00038B50F4D286878B143880288C118013373
:1049E00093420C7A02D24380204638BD00F0D8FBB7
:1049F000002320462B6038BD064B1B782BB10320CB
:104A0000FEF79AFE28600028E6D14FF0FF3038BD4F
:104A1000709AFF1FE499FF1F10B5094C206818B168
:104A200043881844007A10BD064B1B782BB1032035
:104A3000FEF782FE20600028F2D14FF0FF3010BD5B
:104A4000709AFF1FE499FF1F044B054A1B6890886A
:104A50001BB11A885B88D31A18447047709AFF1FDD
:104A6000DC9AFF1F0B4B1B789BB110B50A4C2068DA
:104A700048B100F095FB002303202360FEF75CFEA5
:104A800030B100F08DFB0320FEF756FE0028F8D170
:104A900010BD7047E499FF1F709AFF1F2DE9F04F7A
:104AA000DFF8F89083B0012289F80020019169B302
:104AB000DFF8EC80364F019E8346D8F80000B0B393
:104AC000344D4488C4F14001B14228BF314604EB63
:104AD000010E00221FFA8EFE2A70761AA0F802E05C
:104AE00000F1080251B1013C224459441BF8014B2A
:104AF00002F8014F8B45F9D1B0F802E0BEF13F0F4B
:104B00000BD8254A05211170002ED6D1019800231B
:104B100089F8003003B0BDE8F08F402202800146E2
:104B20000420FEF77FFE0022C8F80020E9E73A786B
:104B30002AB3184D4AF2F9244FF0010A07E0013C6C
:104B400016D02A78A2B9FDF7B7FC3A78BAB104209A
:104B5000FEF710FE0728F2D889F800A000F000FB4D
:104B6000C8F800000028ACD10C4B013C1870E8D10B
:104B700001234FF0FF302B7003B0BDE8F08F00230E
:104B80004FF0FF3089F8003003B0BDE8F08F00BF70
:104B9000E499FF1F6C9AFF1F659AFF1F669AFF1F1B
:104BA000689AFF1F00B583B002AB012103F8010D25
:104BB0001846FFF773FF03B05DF804FBF8B5114B1F
:104BC0001B788BB1104E114D346801272F7064B1E2
:104BD0000F4A638800271770214623800420FEF7C0
:104BE00021FE376000232B70F8BD00F0B9FA084BA6
:104BF00028B1014604201C70FEF714FEF2E71F7076
:104C0000F0E700BFE499FF1F689AFF1F669AFF1F35
:104C1000659AFF1F38B50E4B1B7873B90D4C216890
:104C200061B103F0FF054B880B800420FEF7FAFD0D
:104C3000256038BD084B01221A7038BD00F090FA8B
:104C40000028F7D00146BDE838400420FEF7EABD51
:104C5000669AFF1F689AFF1F659AFF1F30B42948A4
:104C6000294A2A4B2A4D6024E121047011701B78D7
:104C7000284C082B30D00A2B2748284937D00C2B3A
:104C80000CBF35223D2212232A60236002600B6094
:104C9000234B24491B78244ABBB101230B601360CA
:104CA000224B23491B78234A012B26D9042B0FD9E9
:104CB000082B1ED9102B94BF862387230B6013600B
:104CC0001D4B01221A7030BC70470B601360E7E780
:104CD00084230B601360F3E700F58E200F49083042
:104CE000012213232A60236002600B60D0E739227F
:104CF000F7E785230B601360E2E780230B60136006
:104D0000DEE700BF0040074001400740CC8DFF1F99
:104D100008B003400CB0034008B00B400CB00B408F
:104D2000769AFF1F20B0034020B00B40CD8DFF1FAF
:104D300024B0034024B00B40759AFF1FF0B44D1E01
:104D40002E46002400E00134B0FBF2F302FB130016
:104D5000092800F130078ABF3730F8B2C0B206F830
:104D6000010F1846002BEED10A1953704CB1107880
:104D700015F8016F28700133E01A834202F80169C7
:104D8000F5DB0846F0BC70470368C9B21B681847DA
:104D90000368C9B21B6818470368C9B21B68184783
:104DA0000368C9B21B68184708B50846FEF704F93E
:104DB000012008BD08B50846FEF7FEF8012008BD31
:104DC00038B508460D4601F07BFE044601462846EC
:104DD000FEF7FCF8204638BD10B5084614461146CB
:104DE000FEF7F4F8204610BDFEF760B9FEF7CCB927
:104DF00008B50846FEF7B8F8003018BF012008BD16
:104E000008B50846FEF78EF8003018BF012008BD2F
:104E100008461146FEF722B80846FEF759B800BF0B
:104E20000846FDF7FFBF00BFFDF79EBF4B0803F12B
:104E3000376000F5D830B0FBF1F0FDF7FBBE00BFE6
:104E400010B54B0803F13760144600F5D830B0FBBD
:104E5000F1F0FDF7EFFE2046BDE81040FDF758BF2A
:104E6000FEF718B9FEF778B9FEF742B9FEF730B988
:104E7000704700BF044B054A1A604FF47A71002254
:104E800099601A711A737047789AFF1F7471000045
:104E900008B50846FFF74EFB012008BD08B50846D7
:104EA000FFF748FB012008BD38B508460D4601F064
:104EB00007FE044601462846FFF794FB204638BD0E
:104EC00010B5084614461146FFF78CFB204610BD6E
:104ED000FFF7F8BBFFF764BC08B50846FFF70AFB0D
:104EE000003018BF012008BD08B50846FFF7E0FAFA
:104EF000003018BF012008BD08461146FFF770BA00
:104F00000846FFF7A7BA00BF0846FFF74DBA00BF33
:104F1000FFF7EAB94B0803F1376000F5D830B0FB72
:104F2000F1F0FFF747B900BF10B54B0803F1376048
:104F3000144600F5D830B0FBF1F0FFF73BF92046FE
:104F4000BDE81040FFF7A4B9FFF7B0BBFFF710BCF6
:104F5000FFF7DABBFFF7C8BB0368064A1B6893423A
:104F600005D110B5C8B2FFF7E5FA012010BDC9B2EE
:104F7000184700BF9D4E00000368064A1B68934215
:104F800005D110B5C8B2FFF7D5FA012010BDC9B2DE
:104F9000184700BF9D4E00000368064A1B689342F5
:104FA00005D110B5C8B2FFF7C5FA012010BDC9B2CE
:104FB000184700BF9D4E00000368064A1B689342D5
:104FC00005D110B5C8B2FFF7B5FA012010BDC9B2BE
:104FD000184700BF9D4E0000704700BF044B054AB4
:104FE0001A604FF47A71002299601A711A7370472F
:104FF000889AFF1FD471000008B50846FDF7B0FC81
:10500000012008BD08B50846FDF7AAFC012008BD2F
:1050100038B508460D4601F053FD044601462846C2
:10502000FDF7A8FC204638BD10B5084614461146C9
:10503000FDF7A0FC204610BDFDF7BEBCFDF72ABD64
:1050400008B50846FDF76CFC003018BF012008BD0C
:1050500008B50846FDF742FC003018BF012008BD26
:1050600008461146FDF710BC0846FDF735BC00BFE9
:105070000846FDF7EDBB00BFFDF7B2BB4B0803F1DF
:10508000B76000F55840B0FBF1F0FDF735BB00BF4D
:1050900010B54B0803F1B760144600F55840B0FB5B
:1050A000F1F0FDF729FB2046BDE81040FDF76CBB91
:1050B000FDF776BCFDF7D6BCFDF7A0BCFDF78EBCB6
:1050C0000368064A1B68934205D110B5C8B2FDF7C4
:1050D00047FC012010BDC9B2184700BF05500000B1
:1050E0000368064A1B68934205D110B5C8B2FDF7A4
:1050F00037FC012010BDC9B2184700BF05500000A1
:105100000368064A1B68934205D110B5C8B2FDF783
:1051100027FC012010BDC9B2184700BF0550000090
:105120000368064A1B68934205D110B5C8B2FDF763
:1051300017FC012010BDC9B2184700BF0550000080
:10514000704700BF044B054A1A604FF47A71002281
:1051500099601A711A737047989AFF1F3472000091
:1051600072B60D480268B2FA82F30B2B10DC4FF0D6
:105170000041D94022EA0102026062B6074803EB0F
:10518000C303DB00C2180021C150104651607047B4
:1051900062B60020704700BFD08DFF1FBC83FF1F89
:1051A0000D4B0E4AC31AA2FB03231B090B2B0CD871
:1051B0000B4A127852B972B60A484FF000410268A1
:1051C00021FA03F31A43026062B67047064A127866
:1051D000002AF0D0FEF7E4BABC83FF1F398EE33813
:1051E000D999FF1FD08DFF1FE499FF1F70B584B0C0
:1051F00072B6194B194D1A48702241260F2480218E
:105200001A702E701A460470197013781B06FCD59C
:10521000144B186862B6144B144C984298BF00EBBC
:10522000800001A998BF40000A22FFF787FD01A96D
:105230002046002311F8012B01333AB10A2B20F844
:10524000022FF7D11623237004B070BD5B00DBB2D0
:10525000237004B070BD00BF000002400700024090
:1052600006000240080002407F969800608EFF1FF3
:1052700081F0004102E000BF83F0004330B54FEA07
:1052800041044FEA430594EA050F08BF90EA020F74
:105290001FBF54EA000C55EA020C7FEA645C7FEA07
:1052A000655C00F0E2804FEA5454D4EB5555B8BF2A
:1052B0006D420CDD2C4480EA020281EA030382EA9B
:1052C000000083EA010180EA020281EA0303362D2D
:1052D00088BF30BD11F0004F4FEA01314FF4801C00
:1052E0004CEA113102D0404261EB410113F0004F12
:1052F0004FEA03334CEA133302D0524263EB4303C9
:1053000094EA050F00F0A780A4F10104D5F1200E66
:105310000DDB02FA0EFC22FA05F2801841F10001C1
:1053200003FA0EF2801843FA05F359410EE0A5F195
:1053300020050EF1200E012A03FA0EFC28BF4CF0C6
:10534000020C43FA05F3C01851EBE37101F000457C
:1053500007D54FF0000EDCF1000C7EEB00006EEB89
:105360000101B1F5801F1BD3B1F5001F0CD3490813
:105370005FEA30004FEA3C0C04F101044FEA44526A
:1053800012F5800F80F09A80BCF1004F08BF5FEAF1
:10539000500C50F1000041EB045141EA050130BDD1
:1053A0005FEA4C0C404141EB010111F4801FA4F174
:1053B0000104E9D191F0000F04BF01460020B1FAC9
:1053C00081F308BF2033A3F10B03B3F120020CDA01
:1053D0000C3208DD02F1140CC2F10C0201FA0CF0DF
:1053E00021FA02F10CE002F11402D8BFC2F1200C44
:1053F00001FA02F120FA0CFCDCBF41EA0C019040FA
:10540000E41AA2BF01EB0451294330BD6FEA040442
:105410001F3C1CDA0C340EDC04F11404C4F120022D
:1054200020FA04F001FA02F340EA030021FA04F33F
:1054300045EA030130BDC4F10C04C4F1200220FA96
:1054400002F001FA04F340EA0300294630BD21FAD4
:1054500004F0294630BD94F0000F83F4801306BF9A
:1054600081F480110134013D4EE77FEA645C18BF8E
:105470007FEA655C29D094EA050F08BF90EA020F25
:1054800005D054EA000C04BF1946104630BD91EA1D
:10549000030F1EBF0021002030BD5FEA545C05D120
:1054A0004000494128BF41F0004130BD14F580045F
:1054B0003CBF01F5801130BD01F0004545F0FE41D3
:1054C00041F470014FF0000030BD7FEA645C1ABF08
:1054D000194610467FEA655C1CBF0B46024650EA3F
:1054E000013406BF52EA033591EA030F41F400216B
:1054F00030BD00BF90F0000F04BF0021704730B5F1
:105500004FF4806404F132044FF000054FF00001C5
:1055100050E700BF90F0000F04BF0021704730B586
:105520004FF4806404F1320410F0004548BF40425B
:105530004FF000013EE700BF42004FEAE2014FEAB0
:1055400031014FEA02701FBF12F07F4393F07F4F8B
:1055500081F06051704792F0000F14BF93F07F4FBD
:10556000704730B54FF4607401F0004521F0004100
:1055700020E700BF50EA010208BF704730B54FF086
:1055800000050AE050EA010208BF704730B511F08B
:10559000004502D5404261EB41014FF4806404F1C3
:1055A00032045FEA915C3FF4DCAE4FF003025FEA45
:1055B000DC0C18BF03325FEADC0C18BF033202EBCD
:1055C000DC02C2F1200300FA03FC20FA02F001FA27
:1055D00003FE40EA0E0021FA02F11444C1E600BFC6
:1055E00070B54FF0FF0C4CF4E06C1CEA11541DBF79
:1055F0001CEA135594EA0C0F95EA0C0F00F0DEF844
:105600002C4481EA030621EA4C5123EA4C5350EA28
:10561000013518BF52EA033541F4801143F4801379
:1056200038D0A0FB02CE4FF00005E1FB02E506F00A
:105630000042E0FB03E54FF00006E1FB03569CF05F
:10564000000F18BF4EF0010EA4F1FF04B6F5007F65
:1056500064F5407404D25FEA4E0E6D4146EB0606D7
:1056600042EAC62141EA55514FEAC52040EA5E5060
:105670004FEACE2EB4F1FD0C88BFBCF5E06F1ED80A
:10568000BEF1004F08BF5FEA500E50F1000041EB41
:10569000045170BD06F0004646EA010140EA0200EE
:1056A00081EA0301B4EB5C04C2BFD4EB0C0541EA10
:1056B000045170BD41F480114FF0000E013C00F325
:1056C000AB8014F1360FDEBF002001F0004170BD49
:1056D000C4F10004203C35DA0C341BDC04F1140462
:1056E000C4F1200500FA05F320FA04F001FA05F2EE
:1056F00040EA020001F0004221F0004110EBD370BB
:1057000021FA04F642EB06015EEA430E08BF20EAE6
:10571000D37070BDC4F10C04C4F1200500FA04F389
:1057200020FA05F001FA04F240EA020001F000411B
:1057300010EBD37041F100015EEA430E08BF20EA8E
:10574000D37070BDC4F1200500FA05F24EEA020ED6
:1057500020FA04F301FA05F243EA020321FA04F005
:1057600001F0004121FA04F220EA020000EBD370BC
:105770005EEA430E08BF20EAD37070BD94F0000FBC
:105780000FD101F00046400041EB010111F4801FF0
:1057900008BF013CF7D041EA060195F0000F18BFA1
:1057A000704703F00046520043EB030313F4801FDD
:1057B00008BF013DF7D043EA0603704794EA0C0F97
:1057C0000CEA135518BF95EA0C0F0CD050EA4106AD
:1057D00018BF52EA4306D1D181EA030101F000412A
:1057E0004FF0000070BD50EA410606BF1046194652
:1057F00052EA430619D094EA0C0F02D150EA01365E
:1058000013D195EA0C0F05D152EA03361CBF10469E
:1058100019460AD181EA030101F0004141F0FE413D
:1058200041F470014FF0000070BD41F0FE4141F4C1
:10583000780170BD70B54FF0FF0C4CF4E06C1CEAC1
:1058400011541DBF1CEA135594EA0C0F95EA0C0F76
:1058500000F0A7F8A4EB050481EA030E52EA033531
:105860004FEA013100F088804FEA03334FF0805552
:1058700045EA131343EA12634FEA022245EA11157F
:1058800045EA10654FEA00260EF000419D4208BF30
:10589000964244F1FD0404F5407402D25B084FEADD
:1058A0003202B61A65EB03055B084FEA32024FF489
:1058B00080104FF4002CB6EB020E75EB030E22BFE6
:1058C000B61A754640EA0C005B084FEA3202B6EBA6
:1058D000020E75EB030E22BFB61A754640EA5C0055
:1058E0005B084FEA3202B6EB020E75EB030E22BFE5
:1058F000B61A754640EA9C005B084FEA3202B6EBE6
:10590000020E75EB030E22BFB61A754640EADC00A4
:1059100055EA060E18D04FEA051545EA16754FEA06
:1059200006164FEAC30343EA52734FEAC2025FEA24
:105930001C1CC0D111F4801F0BD141EA00014FF0B3
:1059400000004FF0004CB6E711F4801F04BF014384
:105950000020B4F1FD0C88BFBCF5E06F3FF6AFAEA0
:10596000B5EB030C04BFB6EB020C5FEA500C50F130
:10597000000041EB045170BD0EF0004E4EEA1131B3
:1059800014EB5C04C2BFD4EB0C0541EA045170BDBA
:1059900041F480114FF0000E013C90E645EA060EFE
:1059A0008DE60CEA135594EA0C0F08BF95EA0C0F2C
:1059B0003FF43BAF94EA0C0F0AD150EA01347FF474
:1059C00034AF95EA0C0F7FF425AF104619462CE74B
:1059D00095EA0C0F06D152EA03353FF4FDAE1046AE
:1059E000194622E750EA410618BF52EA43067FF4FF
:1059F000C5AE50EA41047FF40DAF52EA43057FF48F
:105A0000EBAE12E74FEA410212F5001215D211D5A2
:105A10006FF47873B3EB625212D94FEAC12343F0AB
:105A2000004343EA505311F0004F23FA02F018BF2D
:105A3000404270474FF00000704750EA013005D1F6
:105A400011F0004008BF6FF0004070474FF00000B9
:105A5000704700BF80F0004002E000BF81F00041CD
:105A600042001FBF5FEA410392EA030F7FEA226C04
:105A70007FEA236C6AD04FEA1262D2EB1363C1BF94
:105A8000D218414048404140B8BF5B42192B88BF03
:105A9000704710F0004F40F4000020F07F4018BF26
:105AA000404211F0004F41F4000121F07F4118BF46
:105AB000494292EA030F3FD0A2F1010241FA03FCEE
:105AC00010EB0C00C3F1200301FA03F100F00043D6
:105AD00002D5494260EB4000B0F5000F13D3B0F19E
